{
  "address": "0x3d42a8FF39752Bd7f02E86B034f3135C4f0b8C24",
  "abi": [
    {
      "anonymous": false,
      "inputs": [
        {
          "indexed": true,
          "internalType": "address",
          "name": "owner",
          "type": "address"
        },
        {
          "indexed": true,
          "internalType": "address",
          "name": "spender",
          "type": "address"
        },
        {
          "indexed": false,
          "internalType": "uint256",
          "name": "value",
          "type": "uint256"
        }
      ],
      "name": "Approval",
      "type": "event"
    },
    {
      "anonymous": false,
      "inputs": [
        {
          "indexed": true,
          "internalType": "address",
          "name": "previousManager",
          "type": "address"
        },
        {
          "indexed": true,
          "internalType": "address",
          "name": "newManager",
          "type": "address"
        }
      ],
      "name": "ManagementTransferred",
      "type": "event"
    },
    {
      "anonymous": false,
      "inputs": [
        {
          "indexed": true,
          "internalType": "address",
          "name": "previousOwner",
          "type": "address"
        },
        {
          "indexed": true,
          "internalType": "address",
          "name": "newOwner",
          "type": "address"
        }
      ],
      "name": "OwnershipTransferred",
      "type": "event"
    },
    {
      "anonymous": false,
      "inputs": [
        {
          "indexed": true,
          "internalType": "address",
          "name": "from",
          "type": "address"
        },
        {
          "indexed": true,
          "internalType": "address",
          "name": "to",
          "type": "address"
        },
        {
          "indexed": false,
          "internalType": "uint256",
          "name": "value",
          "type": "uint256"
        }
      ],
      "name": "Transfer",
      "type": "event"
    },
    {
      "inputs": [
        {
          "internalType": "address",
          "name": "owner",
          "type": "address"
        },
        {
          "internalType": "address",
          "name": "spender",
          "type": "address"
        }
      ],
      "name": "allowance",
      "outputs": [
        {
          "internalType": "uint256",
          "name": "",
          "type": "uint256"
        }
      ],
      "stateMutability": "view",
      "type": "function"
    },
    {
      "inputs": [
        {
          "internalType": "address",
          "name": "spender",
          "type": "address"
        },
        {
          "internalType": "uint256",
          "name": "amount",
          "type": "uint256"
        }
      ],
      "name": "approve",
      "outputs": [
        {
          "internalType": "bool",
          "name": "",
          "type": "bool"
        }
      ],
      "stateMutability": "nonpayable",
      "type": "function"
    },
    {
      "inputs": [
        {
          "internalType": "address",
          "name": "account",
          "type": "address"
        }
      ],
      "name": "balanceOf",
      "outputs": [
        {
          "internalType": "uint256",
          "name": "",
          "type": "uint256"
        }
      ],
      "stateMutability": "view",
      "type": "function"
    },
    {
      "inputs": [
        {
          "internalType": "uint256",
          "name": "amount",
          "type": "uint256"
        }
      ],
      "name": "burn",
      "outputs": [],
      "stateMutability": "nonpayable",
      "type": "function"
    },
    {
      "inputs": [],
      "name": "decimals",
      "outputs": [
        {
          "internalType": "uint8",
          "name": "",
          "type": "uint8"
        }
      ],
      "stateMutability": "pure",
      "type": "function"
    },
    {
      "inputs": [
        {
          "internalType": "address",
          "name": "spender",
          "type": "address"
        },
        {
          "internalType": "uint256",
          "name": "subtractedValue",
          "type": "uint256"
        }
      ],
      "name": "decreaseAllowance",
      "outputs": [
        {
          "internalType": "bool",
          "name": "",
          "type": "bool"
        }
      ],
      "stateMutability": "nonpayable",
      "type": "function"
    },
    {
      "inputs": [
        {
          "internalType": "address",
          "name": "account",
          "type": "address"
        }
      ],
      "name": "excludeFromReward",
      "outputs": [],
      "stateMutability": "nonpayable",
      "type": "function"
    },
    {
      "inputs": [
        {
          "internalType": "uint256",
          "name": "",
          "type": "uint256"
        }
      ],
      "name": "fees",
      "outputs": [
        {
          "internalType": "enum Tokenomics.FeeType",
          "name": "name",
          "type": "uint8"
        },
        {
          "internalType": "uint256",
          "name": "value",
          "type": "uint256"
        },
        {
          "internalType": "address",
          "name": "recipient",
          "type": "address"
        },
        {
          "internalType": "uint256",
          "name": "total",
          "type": "uint256"
        }
      ],
      "stateMutability": "view",
      "type": "function"
    },
    {
      "inputs": [],
      "name": "getOwner",
      "outputs": [
        {
          "internalType": "address",
          "name": "",
          "type": "address"
        }
      ],
      "stateMutability": "view",
      "type": "function"
    },
    {
      "inputs": [],
      "name": "getUnlockTime",
      "outputs": [
        {
          "internalType": "uint256",
          "name": "",
          "type": "uint256"
        }
      ],
      "stateMutability": "view",
      "type": "function"
    },
    {
      "inputs": [
        {
          "internalType": "address",
          "name": "_address",
          "type": "address"
        },
        {
          "internalType": "bool",
          "name": "value",
          "type": "bool"
        }
      ],
      "name": "includeInAntiDumping",
      "outputs": [],
      "stateMutability": "nonpayable",
      "type": "function"
    },
    {
      "inputs": [
        {
          "internalType": "address",
          "name": "account",
          "type": "address"
        }
      ],
      "name": "includeInReward",
      "outputs": [],
      "stateMutability": "nonpayable",
      "type": "function"
    },
    {
      "inputs": [
        {
          "internalType": "address",
          "name": "spender",
          "type": "address"
        },
        {
          "internalType": "uint256",
          "name": "addedValue",
          "type": "uint256"
        }
      ],
      "name": "increaseAllowance",
      "outputs": [
        {
          "internalType": "bool",
          "name": "",
          "type": "bool"
        }
      ],
      "stateMutability": "nonpayable",
      "type": "function"
    },
    {
      "inputs": [
        {
          "internalType": "address",
          "name": "account",
          "type": "address"
        }
      ],
      "name": "isExcludedFromFee",
      "outputs": [
        {
          "internalType": "bool",
          "name": "",
          "type": "bool"
        }
      ],
      "stateMutability": "view",
      "type": "function"
    },
    {
      "inputs": [
        {
          "internalType": "address",
          "name": "account",
          "type": "address"
        }
      ],
      "name": "isExcludedFromReward",
      "outputs": [
        {
          "internalType": "bool",
          "name": "",
          "type": "bool"
        }
      ],
      "stateMutability": "view",
      "type": "function"
    },
    {
      "inputs": [],
      "name": "isInPresale",
      "outputs": [
        {
          "internalType": "bool",
          "name": "",
          "type": "bool"
        }
      ],
      "stateMutability": "view",
      "type": "function"
    },
    {
      "inputs": [
        {
          "internalType": "address",
          "name": "_address",
          "type": "address"
        }
      ],
      "name": "isIncludedInAntiDumping",
      "outputs": [
        {
          "internalType": "bool",
          "name": "",
          "type": "bool"
        }
      ],
      "stateMutability": "view",
      "type": "function"
    },
    {
      "inputs": [
        {
          "internalType": "uint256",
          "name": "time",
          "type": "uint256"
        }
      ],
      "name": "lock",
      "outputs": [],
      "stateMutability": "nonpayable",
      "type": "function"
    },
    {
      "inputs": [],
      "name": "manager",
      "outputs": [
        {
          "internalType": "address",
          "name": "",
          "type": "address"
        }
      ],
      "stateMutability": "view",
      "type": "function"
    },
    {
      "inputs": [],
      "name": "name",
      "outputs": [
        {
          "internalType": "string",
          "name": "",
          "type": "string"
        }
      ],
      "stateMutability": "pure",
      "type": "function"
    },
    {
      "inputs": [],
      "name": "owner",
      "outputs": [
        {
          "internalType": "address",
          "name": "",
          "type": "address"
        }
      ],
      "stateMutability": "view",
      "type": "function"
    },
    {
      "inputs": [
        {
          "internalType": "uint256",
          "name": "tAmount",
          "type": "uint256"
        },
        {
          "internalType": "bool",
          "name": "deductTransferFee",
          "type": "bool"
        }
      ],
      "name": "reflectionFromToken",
      "outputs": [
        {
          "internalType": "uint256",
          "name": "",
          "type": "uint256"
        }
      ],
      "stateMutability": "view",
      "type": "function"
    },
    {
      "inputs": [],
      "name": "renounceOwnership",
      "outputs": [],
      "stateMutability": "nonpayable",
      "type": "function"
    },
    {
      "inputs": [
        {
          "internalType": "address",
          "name": "account",
          "type": "address"
        },
        {
          "internalType": "bool",
          "name": "value",
          "type": "bool"
        }
      ],
      "name": "setExcludedFromFee",
      "outputs": [],
      "stateMutability": "nonpayable",
      "type": "function"
    },
    {
      "inputs": [
        {
          "internalType": "address",
          "name": "account",
          "type": "address"
        },
        {
          "internalType": "bool",
          "name": "value",
          "type": "bool"
        }
      ],
      "name": "setIsUnlimitedSenderOrRecipient",
      "outputs": [],
      "stateMutability": "nonpayable",
      "type": "function"
    },
    {
      "inputs": [
        {
          "internalType": "bool",
          "name": "value",
          "type": "bool"
        }
      ],
      "name": "setPresaleableEnabled",
      "outputs": [],
      "stateMutability": "nonpayable",
      "type": "function"
    },
    {
      "inputs": [],
      "name": "symbol",
      "outputs": [
        {
          "internalType": "string",
          "name": "",
          "type": "string"
        }
      ],
      "stateMutability": "pure",
      "type": "function"
    },
    {
      "inputs": [],
      "name": "totalSupply",
      "outputs": [
        {
          "internalType": "uint256",
          "name": "",
          "type": "uint256"
        }
      ],
      "stateMutability": "pure",
      "type": "function"
    },
    {
      "inputs": [
        {
          "internalType": "address",
          "name": "recipient",
          "type": "address"
        },
        {
          "internalType": "uint256",
          "name": "amount",
          "type": "uint256"
        }
      ],
      "name": "transfer",
      "outputs": [
        {
          "internalType": "bool",
          "name": "",
          "type": "bool"
        }
      ],
      "stateMutability": "nonpayable",
      "type": "function"
    },
    {
      "inputs": [
        {
          "internalType": "address",
          "name": "sender",
          "type": "address"
        },
        {
          "internalType": "address",
          "name": "recipient",
          "type": "address"
        },
        {
          "internalType": "uint256",
          "name": "amount",
          "type": "uint256"
        }
      ],
      "name": "transferFrom",
      "outputs": [
        {
          "internalType": "bool",
          "name": "",
          "type": "bool"
        }
      ],
      "stateMutability": "nonpayable",
      "type": "function"
    },
    {
      "inputs": [
        {
          "internalType": "address",
          "name": "newManager",
          "type": "address"
        }
      ],
      "name": "transferManagement",
      "outputs": [],
      "stateMutability": "nonpayable",
      "type": "function"
    },
    {
      "inputs": [
        {
          "internalType": "address",
          "name": "newOwner",
          "type": "address"
        }
      ],
      "name": "transferOwnership",
      "outputs": [],
      "stateMutability": "nonpayable",
      "type": "function"
    },
    {
      "inputs": [],
      "name": "unlock",
      "outputs": [],
      "stateMutability": "nonpayable",
      "type": "function"
    }
  ],
  "transactionHash": "0x183c856aef9219f86df9d3146dcf51345d29dc92926ce518b24e8490f24d1b95",
  "args": [],
  "solcInputHash": "c82848277d489ca70774913da15cfad0",
  "bytecode": "0x60806040526000600360146101000a81548160ff0219169083151502179055506009600a6200002f919062001030565b6305f5e1006200004091906200116d565b6000196200004f91906200126e565b6000196200005e9190620011ce565b60045561dead600560006101000a81548173ffffffffffffffffffffffffffffffffffffffff021916908373ffffffffffffffffffffffffffffffffffffffff1602179055507374a892aa1fc6c8c44018cdd16a597fb7151195d8600660006101000a81548173ffffffffffffffffffffffffffffffffffffffff021916908373ffffffffffffffffffffffffffffffffffffffff16021790555073841ee81ff407ba5504e103d15d8028116391810d600760006101000a81548173ffffffffffffffffffffffffffffffffffffffff021916908373ffffffffffffffffffffffffffffffffffffffff16021790555073afa6058126d8f48d49a9a4b127ef7e27c5e1dc43600860006101000a81548173ffffffffffffffffffffffffffffffffffffffff021916908373ffffffffffffffffffffffffffffffffffffffff160217905550348015620001b057600080fd5b506000620001c36200056b60201b60201c565b9050806000806101000a81548173ffffffffffffffffffffffffffffffffffffffff021916908373ffffffffffffffffffffffffffffffffffffffff1602179055508073ffffffffffffffffffffffffffffffffffffffff16600073ffffffffffffffffffffffffffffffffffffffff167f8be0079c531659141344cd1fd0a4f28419497f9722a3daafe3b4186f6b6457e060405160405180910390a3506000620002736200056b60201b60201c565b905080600360006101000a81548173ffffffffffffffffffffffffffffffffffffffff021916908373ffffffffffffffffffffffffffffffffffffffff1602179055508073ffffffffffffffffffffffffffffffffffffffff16600073ffffffffffffffffffffffffffffffffffffffff167f80f15e9dbc60884fdb59fb8ed4fc48a9a689e028f055e893ed45ca5be67c5c8560405160405180910390a350620003226200057360201b60201c565b600454600b6000620003396200066860201b60201c565b73ffffffffffffffffffffffffffffffffffffffff1673ffffffffffffffffffffffffffffffffffffffff168152602001908152602001600020819055506001600e60006200038d6200066860201b60201c565b73ffffffffffffffffffffffffffffffffffffffff1673ffffffffffffffffffffffffffffffffffffffff16815260200190815260200160002060006101000a81548160ff0219169083151502179055506001600e60003073ffffffffffffffffffffffffffffffffffffffff1673ffffffffffffffffffffffffffffffffffffffff16815260200190815260200160002060006101000a81548160ff021916908315150217905550620004566200044a6200066860201b60201c565b6200069160201b60201c565b62000467306200069160201b60201c565b6001601260006200047d6200066860201b60201c565b73ffffffffffffffffffffffffffffffffffffffff1673ffffffffffffffffffffffffffffffffffffffff16815260200190815260200160002060006101000a81548160ff021916908315150217905550620004de6200066860201b60201c565b73ffffffffffffffffffffffffffffffffffffffff16600073ffffffffffffffffffffffffffffffffffffffff167fddf252ad1be2c89b69c2b068fc378daa952ba7f163c4a11628f55a4df523b3ef6009600a6200053d919062001030565b6305f5e1006200054e91906200116d565b6040516200055d919062000f12565b60405180910390a362001311565b600033905090565b6200058960006101c2306200082c60201b60201c565b620005c16001610190600560009054906101000a900473ffffffffffffffffffffffffffffffffffffffff166200082c60201b60201c565b620005f86002605a600660009054906101000a900473ffffffffffffffffffffffffffffffffffffffff166200082c60201b60201c565b6200062f6003602a600760009054906101000a900473ffffffffffffffffffffffffffffffffffffffff166200082c60201b60201c565b6200066660046012600860009054906101000a900473ffffffffffffffffffffffffffffffffffffffff166200082c60201b60201c565b565b60008060009054906101000a900473ffffffffffffffffffffffffffffffffffffffff16905090565b6000600b60008373ffffffffffffffffffffffffffffffffffffffff1673ffffffffffffffffffffffffffffffffffffffff1681526020019081526020016000205411156200076e576200072a600b60008373ffffffffffffffffffffffffffffffffffffffff1673ffffffffffffffffffffffffffffffffffffffff168152602001908152602001600020546200099c60201b60201c565b600c60008373ffffffffffffffffffffffffffffffffffffffff1673ffffffffffffffffffffffffffffffffffffffff168152602001908152602001600020819055505b6001600f60008373ffffffffffffffffffffffffffffffffffffffff1673ffffffffffffffffffffffffffffffffffffffff16815260200190815260200160002060006101000a81548160ff0219169083151502179055506010819080600181540180825580915050600190039060005260206000200160009091909190916101000a81548173ffffffffffffffffffffffffffffffffffffffff021916908373ffffffffffffffffffffffffffffffffffffffff16021790555050565b6009604051806080016040528085600481111562000873577f4e487b7100000000000000000000000000000000000000000000000000000000600052602160045260246000fd5b81526020018481526020018373ffffffffffffffffffffffffffffffffffffffff1681526020016000815250908060018154018082558091505060019003906000526020600020906004020160009091909190915060008201518160000160006101000a81548160ff021916908360048111156200091a577f4e487b7100000000000000000000000000000000000000000000000000000000600052602160045260246000fd5b02179055506020820151816001015560408201518160020160006101000a81548173ffffffffffffffffffffffffffffffffffffffff021916908373ffffffffffffffffffffffffffffffffffffffff16021790555060608201518160030155505081600a600082825462000990919062000f40565b92505081905550505050565b6000600454821115620009e6576040517f08c379a0000000000000000000000000000000000000000000000000000000008152600401620009dd9062000ef0565b60405180910390fd5b6000620009f862000a1c60201b60201c565b905062000a14818462000a5660201b6200220b1790919060201c565b915050919050565b600080600062000a3162000a6e60201b60201c565b9150915062000a4f818362000a5660201b6200220b1790919060201c565b9250505090565b6000818362000a66919062000f9d565b905092915050565b6000806000600454905060006009600a62000a8a919062001030565b6305f5e10062000a9b91906200116d565b905060005b60108054905081101562000dd15782600b60006010848154811062000aee577f4e487b7100000000000000000000000000000000000000000000000000000000600052603260045260246000fd5b9060005260206000200160009054906101000a900473ffffffffffffffffffffffffffffffffffffffff1673ffffffffffffffffffffffffffffffffffffffff1673ffffffffffffffffffffffffffffffffffffffff16815260200190815260200160002054118062000c04575081600c60006010848154811062000b9c577f4e487b7100000000000000000000000000000000000000000000000000000000600052603260045260246000fd5b9060005260206000200160009054906101000a900473ffffffffffffffffffffffffffffffffffffffff1673ffffffffffffffffffffffffffffffffffffffff1673ffffffffffffffffffffffffffffffffffffffff16815260200190815260200160002054115b1562000c3b576004546009600a62000c1d919062001030565b6305f5e10062000c2e91906200116d565b9450945050505062000e5b565b62000cf9600b60006010848154811062000c7e577f4e487b7100000000000000000000000000000000000000000000000000000000600052603260045260246000fd5b9060005260206000200160009054906101000a900473ffffffffffffffffffffffffffffffffffffffff1673ffffffffffffffffffffffffffffffffffffffff1673ffffffffffffffffffffffffffffffffffffffff168152602001908152602001600020548462000e5f60201b620022211790919060201c565b925062000db9600c60006010848154811062000d3e577f4e487b7100000000000000000000000000000000000000000000000000000000600052603260045260246000fd5b9060005260206000200160009054906101000a900473ffffffffffffffffffffffffffffffffffffffff1673ffffffffffffffffffffffffffffffffffffffff1673ffffffffffffffffffffffffffffffffffffffff168152602001908152602001600020548362000e5f60201b620022211790919060201c565b9150808062000dc89062001220565b91505062000aa0565b50600081148062000e1c575062000e196009600a62000df1919062001030565b6305f5e10062000e0291906200116d565b60045462000a5660201b6200220b1790919060201c565b82105b1562000e52576004546009600a62000e35919062001030565b6305f5e10062000e4691906200116d565b93509350505062000e5b565b81819350935050505b9091565b6000818362000e6f9190620011ce565b905092915050565b600062000e86602a8362000f2f565b91507f416d6f756e74206d757374206265206c657373207468616e20746f74616c207260008301527f65666c656374696f6e73000000000000000000000000000000000000000000006020830152604082019050919050565b62000eea8162001209565b82525050565b6000602082019050818103600083015262000f0b8162000e77565b9050919050565b600060208201905062000f29600083018462000edf565b92915050565b600082825260208201905092915050565b600062000f4d8262001209565b915062000f5a8362001209565b9250827fffffffffffffffffffffffffffffffffffffffffffffffffffffffffffffffff0382111562000f925762000f91620012a6565b5b828201905092915050565b600062000faa8262001209565b915062000fb78362001209565b92508262000fca5762000fc9620012d5565b5b828204905092915050565b6000808291508390505b6001851115620010275780860481111562000fff5762000ffe620012a6565b5b60018516156200100f5780820291505b80810290506200101f8562001304565b945062000fdf565b94509492505050565b60006200103d8262001209565b91506200104a8362001213565b9250620010797fffffffffffffffffffffffffffffffffffffffffffffffffffffffffffffffff848462001081565b905092915050565b60008262001093576001905062001166565b81620010a3576000905062001166565b8160018114620010bc5760028114620010c757620010fd565b600191505062001166565b60ff841115620010dc57620010db620012a6565b5b8360020a915084821115620010f657620010f5620012a6565b5b5062001166565b5060208310610133831016604e8410600b8410161715620011375782820a905083811115620011315762001130620012a6565b5b62001166565b62001146848484600162000fd5565b9250905081840481111562001160576200115f620012a6565b5b81810290505b9392505050565b60006200117a8262001209565b9150620011878362001209565b9250817fffffffffffffffffffffffffffffffffffffffffffffffffffffffffffffffff0483118215151615620011c357620011c2620012a6565b5b828202905092915050565b6000620011db8262001209565b9150620011e88362001209565b925082821015620011fe57620011fd620012a6565b5b828203905092915050565b6000819050919050565b600060ff82169050919050565b60006200122d8262001209565b91507fffffffffffffffffffffffffffffffffffffffffffffffffffffffffffffffff821415620012635762001262620012a6565b5b600182019050919050565b60006200127b8262001209565b9150620012888362001209565b9250826200129b576200129a620012d5565b5b828206905092915050565b7f4e487b7100000000000000000000000000000000000000000000000000000000600052601160045260246000fd5b7f4e487b7100000000000000000000000000000000000000000000000000000000600052601260045260246000fd5b60008160011c9050919050565b6150ee80620013216000396000f3fe608060405234801561001057600080fd5b50600436106101fb5760003560e01c8063602bc62b1161011a578063a457c2d7116100ad578063dd4670641161007c578063dd467064146105dd578063dd62ed3e146105f9578063deb0b86f14610629578063e4edf85214610645578063f2fde38b14610661576101fb565b8063a457c2d714610555578063a69df4b514610585578063a9059cbb1461058f578063d4cdeb3c146105bf576101fb565b806388f82020116100e957806388f82020146104cb578063893d20e8146104fb5780638da5cb5b1461051957806395d89b4114610537576101fb565b8063602bc62b146104575780636612e66f1461047557806370a0823114610491578063715018a6146104c1576101fb565b806342966c681161019257806352390c021161016157806352390c02146103bf5780635342acb4146103db5780635811725e1461040b57806358de5bdc1461043b576101fb565b806342966c68146103225780634549b0391461033e578063481c6a751461036e5780634acc79ed1461038c576101fb565b806323b872dd116101ce57806323b872dd14610288578063313ce567146102b85780633685d419146102d657806339509351146102f2576101fb565b806306fdde0314610200578063095ea7b31461021e57806318160ddd1461024e5780631b24f16d1461026c575b600080fd5b61020861067d565b60405161021591906148d7565b60405180910390f35b61023860048036038101906102339190613ed6565b6106ba565b6040516102459190614877565b60405180910390f35b6102566106d8565b6040516102639190614b99565b60405180910390f35b61028660048036038101906102819190613e9a565b6106fc565b005b6102a2600480360381019061029d9190613e4b565b6107f5565b6040516102af9190614877565b60405180910390f35b6102c06108ce565b6040516102cd9190614bb4565b60405180910390f35b6102f060048036038101906102eb9190613de6565b6108d7565b005b61030c60048036038101906103079190613ed6565b610cbe565b6040516103199190614877565b60405180910390f35b61033c60048036038101906103379190613f3b565b610d71565b005b61035860048036038101906103539190613f64565b61107a565b6040516103659190614b99565b60405180910390f35b610376611120565b604051610383919061485c565b60405180910390f35b6103a660048036038101906103a19190613f3b565b61114a565b6040516103b69493929190614892565b60405180910390f35b6103d960048036038101906103d49190613de6565b6111b7565b005b6103f560048036038101906103f09190613de6565b6112e5565b6040516104029190614877565b60405180910390f35b61042560048036038101906104209190613de6565b61133b565b6040516104329190614877565b60405180910390f35b61045560048036038101906104509190613f12565b611391565b005b61045f611445565b60405161046c9190614b99565b60405180910390f35b61048f600480360381019061048a9190613e9a565b61144f565b005b6104ab60048036038101906104a69190613de6565b61153f565b6040516104b89190614b99565b60405180910390f35b6104c961162a565b005b6104e560048036038101906104e09190613de6565b61177d565b6040516104f29190614877565b60405180910390f35b6105036117d3565b604051610510919061485c565b60405180910390f35b6105216117e2565b60405161052e919061485c565b60405180910390f35b61053f61180b565b60405161054c91906148d7565b60405180910390f35b61056f600480360381019061056a9190613ed6565b611848565b60405161057c9190614877565b60405180910390f35b61058d611915565b005b6105a960048036038101906105a49190613ed6565b611ae9565b6040516105b69190614877565b60405180910390f35b6105c7611b07565b6040516105d49190614877565b60405180910390f35b6105f760048036038101906105f29190613f3b565b611b1a565b005b610613600480360381019061060e9190613e0f565b611ce1565b6040516106209190614b99565b60405180910390f35b610643600480360381019061063e9190613e9a565b611d68565b005b61065f600480360381019061065a9190613de6565b611ef2565b005b61067b60048036038101906106769190613de6565b612049565b005b60606040518060400160405280601181526020017f43696e656d61447261667420546f6b656e000000000000000000000000000000815250905090565b60006106ce6106c7612237565b848461223f565b6001905092915050565b60006009600a6106e89190614cc5565b6305f5e1006106f79190614de3565b905090565b610704612237565b73ffffffffffffffffffffffffffffffffffffffff1660008054906101000a900473ffffffffffffffffffffffffffffffffffffffff1673ffffffffffffffffffffffffffffffffffffffff1614610791576040517f08c379a000000000000000000000000000000000000000000000000000000000815260040161078890614a79565b60405180910390fd5b80601160008473ffffffffffffffffffffffffffffffffffffffff1673ffffffffffffffffffffffffffffffffffffffff16815260200190815260200160002060006101000a81548160ff0219169083151502179055506107f18261240a565b5050565b600061080284848461259c565b6108c38461080e612237565b6108be8560405180606001604052806028815260200161506c60289139600d60008b73ffffffffffffffffffffffffffffffffffffffff1673ffffffffffffffffffffffffffffffffffffffff1681526020019081526020016000206000610874612237565b73ffffffffffffffffffffffffffffffffffffffff1673ffffffffffffffffffffffffffffffffffffffff168152602001908152602001600020546129519092919063ffffffff16565b61223f565b600190509392505050565b60006009905090565b6108df612237565b73ffffffffffffffffffffffffffffffffffffffff1660008054906101000a900473ffffffffffffffffffffffffffffffffffffffff1673ffffffffffffffffffffffffffffffffffffffff161461096c576040517f08c379a000000000000000000000000000000000000000000000000000000000815260040161096390614a79565b60405180910390fd5b600f60008273ffffffffffffffffffffffffffffffffffffffff1673ffffffffffffffffffffffffffffffffffffffff16815260200190815260200160002060009054906101000a900460ff166109f8576040517f08c379a00000000000000000000000000000000000000000000000000000000081526004016109ef90614959565b60405180910390fd5b60005b601080549050811015610cba578173ffffffffffffffffffffffffffffffffffffffff1660108281548110610a59577f4e487b7100000000000000000000000000000000000000000000000000000000600052603260045260246000fd5b9060005260206000200160009054906101000a900473ffffffffffffffffffffffffffffffffffffffff1673ffffffffffffffffffffffffffffffffffffffff161415610ca75760106001601080549050610ab49190614e3d565b81548110610aeb577f4e487b7100000000000000000000000000000000000000000000000000000000600052603260045260246000fd5b9060005260206000200160009054906101000a900473ffffffffffffffffffffffffffffffffffffffff1660108281548110610b50577f4e487b7100000000000000000000000000000000000000000000000000000000600052603260045260246000fd5b9060005260206000200160006101000a81548173ffffffffffffffffffffffffffffffffffffffff021916908373ffffffffffffffffffffffffffffffffffffffff1602179055506000600c60008473ffffffffffffffffffffffffffffffffffffffff1673ffffffffffffffffffffffffffffffffffffffff168152602001908152602001600020819055506000600f60008473ffffffffffffffffffffffffffffffffffffffff1673ffffffffffffffffffffffffffffffffffffffff16815260200190815260200160002060006101000a81548160ff0219169083151502179055506010805480610c6d577f4e487b7100000000000000000000000000000000000000000000000000000000600052603160045260246000fd5b6001900381819060005260206000200160006101000a81549073ffffffffffffffffffffffffffffffffffffffff02191690559055610cba565b8080610cb290614f1e565b9150506109fb565b5050565b6000610d67610ccb612237565b84610d6285600d6000610cdc612237565b73ffffffffffffffffffffffffffffffffffffffff1673ffffffffffffffffffffffffffffffffffffffff16815260200190815260200160002060008973ffffffffffffffffffffffffffffffffffffffff1673ffffffffffffffffffffffffffffffffffffffff168152602001908152602001600020546129a690919063ffffffff16565b61223f565b6001905092915050565b6000610d7b612237565b9050600073ffffffffffffffffffffffffffffffffffffffff168173ffffffffffffffffffffffffffffffffffffffff161415610ded576040517f08c379a0000000000000000000000000000000000000000000000000000000008152600401610de4906149d9565b60405180910390fd5b600560009054906101000a900473ffffffffffffffffffffffffffffffffffffffff1673ffffffffffffffffffffffffffffffffffffffff168173ffffffffffffffffffffffffffffffffffffffff161415610e7e576040517f08c379a0000000000000000000000000000000000000000000000000000000008152600401610e7590614ab9565b60405180910390fd5b6000610e898261153f565b905082811015610ece576040517f08c379a0000000000000000000000000000000000000000000000000000000008152600401610ec590614b59565b60405180910390fd5b6000610eea610edb6129bc565b856129e790919063ffffffff16565b9050610f3e81600b60008673ffffffffffffffffffffffffffffffffffffffff1673ffffffffffffffffffffffffffffffffffffffff1681526020019081526020016000205461222190919063ffffffff16565b600b60008573ffffffffffffffffffffffffffffffffffffffff1673ffffffffffffffffffffffffffffffffffffffff16815260200190815260200160002081905550600f60008473ffffffffffffffffffffffffffffffffffffffff1673ffffffffffffffffffffffffffffffffffffffff16815260200190815260200160002060009054906101000a900460ff16156110695761102584600c60008673ffffffffffffffffffffffffffffffffffffffff1673ffffffffffffffffffffffffffffffffffffffff1681526020019081526020016000205461222190919063ffffffff16565b600c60008573ffffffffffffffffffffffffffffffffffffffff1673ffffffffffffffffffffffffffffffffffffffff168152602001908152602001600020819055505b6110748385836129fd565b50505050565b60006009600a61108a9190614cc5565b6305f5e1006110999190614de3565b8311156110db576040517f08c379a00000000000000000000000000000000000000000000000000000000081526004016110d290614a39565b60405180910390fd5b816110fc5760006110ed846000612cb0565b5050505090508091505061111a565b600061110f8461110a612d6d565b612cb0565b505050915050809150505b92915050565b6000600360009054906101000a900473ffffffffffffffffffffffffffffffffffffffff16905090565b6009818154811061115a57600080fd5b90600052602060002090600402016000915090508060000160009054906101000a900460ff16908060010154908060020160009054906101000a900473ffffffffffffffffffffffffffffffffffffffff16908060030154905084565b6111bf612237565b73ffffffffffffffffffffffffffffffffffffffff1660008054906101000a900473ffffffffffffffffffffffffffffffffffffffff1673ffffffffffffffffffffffffffffffffffffffff161461124c576040517f08c379a000000000000000000000000000000000000000000000000000000000815260040161124390614a79565b60405180910390fd5b600f60008273ffffffffffffffffffffffffffffffffffffffff1673ffffffffffffffffffffffffffffffffffffffff16815260200190815260200160002060009054906101000a900460ff16156112d9576040517f08c379a00000000000000000000000000000000000000000000000000000000081526004016112d090614939565b60405180910390fd5b6112e28161240a565b50565b6000600e60008373ffffffffffffffffffffffffffffffffffffffff1673ffffffffffffffffffffffffffffffffffffffff16815260200190815260200160002060009054906101000a900460ff169050919050565b6000601160008373ffffffffffffffffffffffffffffffffffffffff1673ffffffffffffffffffffffffffffffffffffffff16815260200190815260200160002060009054906101000a900460ff169050919050565b611399612237565b73ffffffffffffffffffffffffffffffffffffffff16600360009054906101000a900473ffffffffffffffffffffffffffffffffffffffff1673ffffffffffffffffffffffffffffffffffffffff1614611428576040517f08c379a000000000000000000000000000000000000000000000000000000000815260040161141f90614ad9565b60405180910390fd5b80600360146101000a81548160ff02191690831515021790555050565b6000600254905090565b611457612237565b73ffffffffffffffffffffffffffffffffffffffff1660008054906101000a900473ffffffffffffffffffffffffffffffffffffffff1673ffffffffffffffffffffffffffffffffffffffff16146114e4576040517f08c379a00000000000000000000000000000000000000000000000000000000081526004016114db90614a79565b60405180910390fd5b80600e60008473ffffffffffffffffffffffffffffffffffffffff1673ffffffffffffffffffffffffffffffffffffffff16815260200190815260200160002060006101000a81548160ff0219169083151502179055505050565b6000600f60008373ffffffffffffffffffffffffffffffffffffffff1673ffffffffffffffffffffffffffffffffffffffff16815260200190815260200160002060009054906101000a900460ff16156115da57600c60008373ffffffffffffffffffffffffffffffffffffffff1673ffffffffffffffffffffffffffffffffffffffff168152602001908152602001600020549050611625565b611622600b60008473ffffffffffffffffffffffffffffffffffffffff1673ffffffffffffffffffffffffffffffffffffffff16815260200190815260200160002054612d77565b90505b919050565b611632612237565b73ffffffffffffffffffffffffffffffffffffffff1660008054906101000a900473ffffffffffffffffffffffffffffffffffffffff1673ffffffffffffffffffffffffffffffffffffffff16146116bf576040517f08c379a00000000000000000000000000000000000000000000000000000000081526004016116b690614a79565b60405180910390fd5b600073ffffffffffffffffffffffffffffffffffffffff1660008054906101000a900473ffffffffffffffffffffffffffffffffffffffff1673ffffffffffffffffffffffffffffffffffffffff167f8be0079c531659141344cd1fd0a4f28419497f9722a3daafe3b4186f6b6457e060405160405180910390a360008060006101000a81548173ffffffffffffffffffffffffffffffffffffffff021916908373ffffffffffffffffffffffffffffffffffffffff160217905550565b6000600f60008373ffffffffffffffffffffffffffffffffffffffff1673ffffffffffffffffffffffffffffffffffffffff16815260200190815260200160002060009054906101000a900460ff169050919050565b60006117dd6117e2565b905090565b60008060009054906101000a900473ffffffffffffffffffffffffffffffffffffffff16905090565b60606040518060400160405280600481526020017f4344334400000000000000000000000000000000000000000000000000000000815250905090565b600061190b611855612237565b846119068560405180606001604052806025815260200161509460259139600d600061187f612237565b73ffffffffffffffffffffffffffffffffffffffff1673ffffffffffffffffffffffffffffffffffffffff16815260200190815260200160002060008a73ffffffffffffffffffffffffffffffffffffffff1673ffffffffffffffffffffffffffffffffffffffff168152602001908152602001600020546129519092919063ffffffff16565b61223f565b6001905092915050565b3373ffffffffffffffffffffffffffffffffffffffff16600160009054906101000a900473ffffffffffffffffffffffffffffffffffffffff1673ffffffffffffffffffffffffffffffffffffffff16146119a5576040517f08c379a000000000000000000000000000000000000000000000000000000000815260040161199c90614979565b60405180910390fd5b60025442116119e9576040517f08c379a00000000000000000000000000000000000000000000000000000000081526004016119e090614919565b60405180910390fd5b600160009054906101000a900473ffffffffffffffffffffffffffffffffffffffff1673ffffffffffffffffffffffffffffffffffffffff1660008054906101000a900473ffffffffffffffffffffffffffffffffffffffff1673ffffffffffffffffffffffffffffffffffffffff167f8be0079c531659141344cd1fd0a4f28419497f9722a3daafe3b4186f6b6457e060405160405180910390a3600160009054906101000a900473ffffffffffffffffffffffffffffffffffffffff166000806101000a81548173ffffffffffffffffffffffffffffffffffffffff021916908373ffffffffffffffffffffffffffffffffffffffff160217905550565b6000611afd611af6612237565b848461259c565b6001905092915050565b600360149054906101000a900460ff1681565b611b22612237565b73ffffffffffffffffffffffffffffffffffffffff1660008054906101000a900473ffffffffffffffffffffffffffffffffffffffff1673ffffffffffffffffffffffffffffffffffffffff1614611baf576040517f08c379a0000000000000000000000000000000000000000000000000000000008152600401611ba690614a79565b60405180910390fd5b60008054906101000a900473ffffffffffffffffffffffffffffffffffffffff16600160006101000a81548173ffffffffffffffffffffffffffffffffffffffff021916908373ffffffffffffffffffffffffffffffffffffffff16021790555060008060006101000a81548173ffffffffffffffffffffffffffffffffffffffff021916908373ffffffffffffffffffffffffffffffffffffffff1602179055508042611c5d9190614beb565b600281905550600073ffffffffffffffffffffffffffffffffffffffff1660008054906101000a900473ffffffffffffffffffffffffffffffffffffffff1673ffffffffffffffffffffffffffffffffffffffff167f8be0079c531659141344cd1fd0a4f28419497f9722a3daafe3b4186f6b6457e060405160405180910390a350565b6000600d60008473ffffffffffffffffffffffffffffffffffffffff1673ffffffffffffffffffffffffffffffffffffffff16815260200190815260200160002060008373ffffffffffffffffffffffffffffffffffffffff1673ffffffffffffffffffffffffffffffffffffffff16815260200190815260200160002054905092915050565b611d70612237565b73ffffffffffffffffffffffffffffffffffffffff1660008054906101000a900473ffffffffffffffffffffffffffffffffffffffff1673ffffffffffffffffffffffffffffffffffffffff1614611dfd576040517f08c379a0000000000000000000000000000000000000000000000000000000008152600401611df490614a79565b60405180910390fd5b600360149054906101000a900460ff16611e4c576040517f08c379a0000000000000000000000000000000000000000000000000000000008152600401611e4390614b79565b60405180910390fd5b80601260008473ffffffffffffffffffffffffffffffffffffffff1673ffffffffffffffffffffffffffffffffffffffff16815260200190815260200160002060006101000a81548160ff021916908315150217905550600e60008373ffffffffffffffffffffffffffffffffffffffff1673ffffffffffffffffffffffffffffffffffffffff16815260200190815260200160002060009054906101000a9050505050565b611efa612237565b73ffffffffffffffffffffffffffffffffffffffff16600360009054906101000a900473ffffffffffffffffffffffffffffffffffffffff1673ffffffffffffffffffffffffffffffffffffffff1614611f89576040517f08c379a0000000000000000000000000000000000000000000000000000000008152600401611f8090614ad9565b60405180910390fd5b8073ffffffffffffffffffffffffffffffffffffffff16600360009054906101000a900473ffffffffffffffffffffffffffffffffffffffff1673ffffffffffffffffffffffffffffffffffffffff167f80f15e9dbc60884fdb59fb8ed4fc48a9a689e028f055e893ed45ca5be67c5c8560405160405180910390a380600360006101000a81548173ffffffffffffffffffffffffffffffffffffffff021916908373ffffffffffffffffffffffffffffffffffffffff16021790555050565b612051612237565b73ffffffffffffffffffffffffffffffffffffffff1660008054906101000a900473ffffffffffffffffffffffffffffffffffffffff1673ffffffffffffffffffffffffffffffffffffffff16146120de576040517f08c379a00000000000000000000000000000000000000000000000000000000081526004016120d590614a79565b60405180910390fd5b600073ffffffffffffffffffffffffffffffffffffffff168173ffffffffffffffffffffffffffffffffffffffff16141561214e576040517f08c379a0000000000000000000000000000000000000000000000000000000008152600401612145906149b9565b60405180910390fd5b8073ffffffffffffffffffffffffffffffffffffffff1660008054906101000a900473ffffffffffffffffffffffffffffffffffffffff1673ffffffffffffffffffffffffffffffffffffffff167f8be0079c531659141344cd1fd0a4f28419497f9722a3daafe3b4186f6b6457e060405160405180910390a3806000806101000a81548173ffffffffffffffffffffffffffffffffffffffff021916908373ffffffffffffffffffffffffffffffffffffffff16021790555050565b600081836122199190614c41565b905092915050565b6000818361222f9190614e3d565b905092915050565b600033905090565b600073ffffffffffffffffffffffffffffffffffffffff168373ffffffffffffffffffffffffffffffffffffffff1614156122af576040517f08c379a00000000000000000000000000000000000000000000000000000000081526004016122a690614a99565b60405180910390fd5b600073ffffffffffffffffffffffffffffffffffffffff168273ffffffffffffffffffffffffffffffffffffffff16141561231f576040517f08c379a000000000000000000000000000000000000000000000000000000000815260040161231690614a19565b60405180910390fd5b80600d60008573ffffffffffffffffffffffffffffffffffffffff1673ffffffffffffffffffffffffffffffffffffffff16815260200190815260200160002060008473ffffffffffffffffffffffffffffffffffffffff1673ffffffffffffffffffffffffffffffffffffffff168152602001908152602001600020819055508173ffffffffffffffffffffffffffffffffffffffff168373ffffffffffffffffffffffffffffffffffffffff167f8c5be1e5ebec7d5bd14f71427d1e84f3dd0314c0f7b2291e5b200ac8c7c3b925836040516123fd9190614b99565b60405180910390a3505050565b6000600b60008373ffffffffffffffffffffffffffffffffffffffff1673ffffffffffffffffffffffffffffffffffffffff1681526020019081526020016000205411156124de5761249a600b60008373ffffffffffffffffffffffffffffffffffffffff1673ffffffffffffffffffffffffffffffffffffffff16815260200190815260200160002054612d77565b600c60008373ffffffffffffffffffffffffffffffffffffffff1673ffffffffffffffffffffffffffffffffffffffff168152602001908152602001600020819055505b6001600f60008373ffffffffffffffffffffffffffffffffffffffff1673ffffffffffffffffffffffffffffffffffffffff16815260200190815260200160002060006101000a81548160ff0219169083151502179055506010819080600181540180825580915050600190039060005260206000200160009091909190916101000a81548173ffffffffffffffffffffffffffffffffffffffff021916908373ffffffffffffffffffffffffffffffffffffffff16021790555050565b600073ffffffffffffffffffffffffffffffffffffffff168373ffffffffffffffffffffffffffffffffffffffff16141561260c576040517f08c379a000000000000000000000000000000000000000000000000000000000815260040161260390614af9565b60405180910390fd5b600073ffffffffffffffffffffffffffffffffffffffff168273ffffffffffffffffffffffffffffffffffffffff16141561267c576040517f08c379a000000000000000000000000000000000000000000000000000000000815260040161267390614a59565b60405180910390fd5b600560009054906101000a900473ffffffffffffffffffffffffffffffffffffffff1673ffffffffffffffffffffffffffffffffffffffff168373ffffffffffffffffffffffffffffffffffffffff16141561270d576040517f08c379a0000000000000000000000000000000000000000000000000000000008152600401612704906148f9565b60405180910390fd5b60008111612750576040517f08c379a000000000000000000000000000000000000000000000000000000000815260040161274790614b39565b60405180910390fd5b6000600190506000612760612d6d565b9050600360149054906101000a900460ff16156127805760009150612821565b61271061ffff16600f6009600a6127979190614cc5565b6305f5e1006127a69190614de3565b6127b09190614de3565b6127ba9190614c41565b831180156127ce57506127cc85612de5565b155b80156127e057506127de84612de5565b155b15612820576040517f08c379a0000000000000000000000000000000000000000000000000000000008152600401612817906149f9565b60405180910390fd5b5b600e60008673ffffffffffffffffffffffffffffffffffffffff1673ffffffffffffffffffffffffffffffffffffffff16815260200190815260200160002060009054906101000a900460ff16806128c25750600e60008573ffffffffffffffffffffffffffffffffffffffff1673ffffffffffffffffffffffffffffffffffffffff16815260200190815260200160002060009054906101000a900460ff165b156128cc57600091505b601160008573ffffffffffffffffffffffffffffffffffffffff1673ffffffffffffffffffffffffffffffffffffffff16815260200190815260200160002060009054906101000a900460ff161561293d5761293a6105dc61292c612d6d565b6129a690919063ffffffff16565b90505b61294a8585858585612e3b565b5050505050565b6000838311158290612999576040517f08c379a000000000000000000000000000000000000000000000000000000000815260040161299091906148d7565b60405180910390fd5b5082840390509392505050565b600081836129b49190614beb565b905092915050565b60008060006129c96131d7565b915091506129e0818361220b90919063ffffffff16565b9250505090565b600081836129f59190614de3565b905092915050565b612a7181600b6000600560009054906101000a900473ffffffffffffffffffffffffffffffffffffffff1673ffffffffffffffffffffffffffffffffffffffff1673ffffffffffffffffffffffffffffffffffffffff168152602001908152602001600020546129a690919063ffffffff16565b600b6000600560009054906101000a900473ffffffffffffffffffffffffffffffffffffffff1673ffffffffffffffffffffffffffffffffffffffff1673ffffffffffffffffffffffffffffffffffffffff16815260200190815260200160002081905550600f6000600560009054906101000a900473ffffffffffffffffffffffffffffffffffffffff1673ffffffffffffffffffffffffffffffffffffffff1673ffffffffffffffffffffffffffffffffffffffff16815260200190815260200160002060009054906101000a900460ff1615612c2457612bbe82600c6000600560009054906101000a900473ffffffffffffffffffffffffffffffffffffffff1673ffffffffffffffffffffffffffffffffffffffff1673ffffffffffffffffffffffffffffffffffffffff168152602001908152602001600020546129a690919063ffffffff16565b600c6000600560009054906101000a900473ffffffffffffffffffffffffffffffffffffffff1673ffffffffffffffffffffffffffffffffffffffff1673ffffffffffffffffffffffffffffffffffffffff168152602001908152602001600020819055505b600560009054906101000a900473ffffffffffffffffffffffffffffffffffffffff1673ffffffffffffffffffffffffffffffffffffffff168373ffffffffffffffffffffffffffffffffffffffff167fddf252ad1be2c89b69c2b068fc378daa952ba7f163c4a11628f55a4df523b3ef84604051612ca39190614b99565b60405180910390a3505050565b600080600080600080612ce461271061ffff16612cd6898b6129e790919063ffffffff16565b61220b90919063ffffffff16565b90506000612cfb828a61222190919063ffffffff16565b90506000612d076129bc565b90506000612d1e828c6129e790919063ffffffff16565b90506000612d3583866129e790919063ffffffff16565b90506000612d4c828461222190919063ffffffff16565b905082818e87879a509a509a509a509a505050505050509295509295909350565b6000600a54905090565b6000600454821115612dbe576040517f08c379a0000000000000000000000000000000000000000000000000000000008152600401612db590614999565b60405180910390fd5b6000612dc86129bc565b9050612ddd818461220b90919063ffffffff16565b915050919050565b6000601260008373ffffffffffffffffffffffffffffffffffffffff1673ffffffffffffffffffffffffffffffffffffffff16815260200190815260200160002060009054906101000a900460ff169050919050565b81612e4557600090505b6000806000806000612e578887612cb0565b94509450945094509450612eb385600b60008d73ffffffffffffffffffffffffffffffffffffffff1673ffffffffffffffffffffffffffffffffffffffff1681526020019081526020016000205461222190919063ffffffff16565b600b60008c73ffffffffffffffffffffffffffffffffffffffff1673ffffffffffffffffffffffffffffffffffffffff16815260200190815260200160002081905550612f4884600b60008c73ffffffffffffffffffffffffffffffffffffffff1673ffffffffffffffffffffffffffffffffffffffff168152602001908152602001600020546129a690919063ffffffff16565b600b60008b73ffffffffffffffffffffffffffffffffffffffff1673ffffffffffffffffffffffffffffffffffffffff16815260200190815260200160002081905550600f60008b73ffffffffffffffffffffffffffffffffffffffff1673ffffffffffffffffffffffffffffffffffffffff16815260200190815260200160002060009054906101000a900460ff16156130735761302f83600c60008d73ffffffffffffffffffffffffffffffffffffffff1673ffffffffffffffffffffffffffffffffffffffff1681526020019081526020016000205461222190919063ffffffff16565b600c60008c73ffffffffffffffffffffffffffffffffffffffff1673ffffffffffffffffffffffffffffffffffffffff168152602001908152602001600020819055505b600f60008a73ffffffffffffffffffffffffffffffffffffffff1673ffffffffffffffffffffffffffffffffffffffff16815260200190815260200160002060009054906101000a900460ff161561315b5761311782600c60008c73ffffffffffffffffffffffffffffffffffffffff1673ffffffffffffffffffffffffffffffffffffffff168152602001908152602001600020546129a690919063ffffffff16565b600c60008b73ffffffffffffffffffffffffffffffffffffffff1673ffffffffffffffffffffffffffffffffffffffff168152602001908152602001600020819055505b613166888288613595565b8873ffffffffffffffffffffffffffffffffffffffff168a73ffffffffffffffffffffffffffffffffffffffff167fddf252ad1be2c89b69c2b068fc378daa952ba7f163c4a11628f55a4df523b3ef846040516131c39190614b99565b60405180910390a350505050505050505050565b6000806000600454905060006009600a6131f19190614cc5565b6305f5e1006132009190614de3565b905060005b6010805490508110156135195782600b600060108481548110613251577f4e487b7100000000000000000000000000000000000000000000000000000000600052603260045260246000fd5b9060005260206000200160009054906101000a900473ffffffffffffffffffffffffffffffffffffffff1673ffffffffffffffffffffffffffffffffffffffff1673ffffffffffffffffffffffffffffffffffffffff168152602001908152602001600020541180613365575081600c6000601084815481106132fd577f4e487b7100000000000000000000000000000000000000000000000000000000600052603260045260246000fd5b9060005260206000200160009054906101000a900473ffffffffffffffffffffffffffffffffffffffff1673ffffffffffffffffffffffffffffffffffffffff1673ffffffffffffffffffffffffffffffffffffffff16815260200190815260200160002054115b15613396576004546009600a61337b9190614cc5565b6305f5e10061338a9190614de3565b94509450505050613591565b61344c600b6000601084815481106133d7577f4e487b7100000000000000000000000000000000000000000000000000000000600052603260045260246000fd5b9060005260206000200160009054906101000a900473ffffffffffffffffffffffffffffffffffffffff1673ffffffffffffffffffffffffffffffffffffffff1673ffffffffffffffffffffffffffffffffffffffff168152602001908152602001600020548461222190919063ffffffff16565b9250613504600c60006010848154811061348f577f4e487b7100000000000000000000000000000000000000000000000000000000600052603260045260246000fd5b9060005260206000200160009054906101000a900473ffffffffffffffffffffffffffffffffffffffff1673ffffffffffffffffffffffffffffffffffffffff1673ffffffffffffffffffffffffffffffffffffffff168152602001908152602001600020548361222190919063ffffffff16565b9150808061351190614f1e565b915050613205565b50600081148061355857506135556009600a6135359190614cc5565b6305f5e1006135449190614de3565b60045461220b90919063ffffffff16565b82105b15613588576004546009600a61356e9190614cc5565b6305f5e10061357d9190614de3565b935093505050613591565b81819350935050505b9091565b6000811180156135b25750600360149054906101000a900460ff16155b15613632576135d36105dc6135c5612d6d565b6129a690919063ffffffff16565b8114156136265761362161361b600a61360d61271061ffff166135ff86896129e790919063ffffffff16565b61220b90919063ffffffff16565b6129e790919063ffffffff16565b83613637565b613631565b6136308383613637565b5b5b505050565b600360149054906101000a900460ff1615613651576138e2565b600061365b6138e6565b905060005b818110156138df576000806000613676846138f3565b50925092509250600082141561368e575050506138cc565b600060048111156136c8577f4e487b7100000000000000000000000000000000000000000000000000000000600052602160045260246000fd5b836004811115613701577f4e487b7100000000000000000000000000000000000000000000000000000000600052602160045260246000fd5b14156137185761371387878487613a26565b6138c8565b60016004811115613752577f4e487b7100000000000000000000000000000000000000000000000000000000600052602160045260246000fd5b83600481111561378b577f4e487b7100000000000000000000000000000000000000000000000000000000600052602160045260246000fd5b14156137a25761379d87878487613a99565b6138c7565b600260048111156137dc577f4e487b7100000000000000000000000000000000000000000000000000000000600052602160045260246000fd5b836004811115613815577f4e487b7100000000000000000000000000000000000000000000000000000000600052602160045260246000fd5b141561382d576138288787848488613afc565b6138c6565b600480811115613866577f4e487b7100000000000000000000000000000000000000000000000000000000600052602160045260246000fd5b83600481111561389f577f4e487b7100000000000000000000000000000000000000000000000000000000600052602160045260246000fd5b14156138b7576138b28787848488613afc565b6138c5565b6138c48787848488613afc565b5b5b5b5b5050505b80806138d790614f1e565b915050613660565b50505b5050565b6000600980549050905090565b600080600080600061390486613cd2565b6040518060800160405290816000820160009054906101000a900460ff16600481111561395a577f4e487b7100000000000000000000000000000000000000000000000000000000600052602160045260246000fd5b6004811115613992577f4e487b7100000000000000000000000000000000000000000000000000000000600052602160045260246000fd5b8152602001600182015481526020016002820160009054906101000a900473ffffffffffffffffffffffffffffffffffffffff1673ffffffffffffffffffffffffffffffffffffffff1673ffffffffffffffffffffffffffffffffffffffff168152602001600382015481525050905080600001518160200151826040015183606001519450945094509450509193509193565b6000613a5361271061ffff16613a4585886129e790919063ffffffff16565b61220b90919063ffffffff16565b90506000613a6a85836129e790919063ffffffff16565b9050613a818160045461222190919063ffffffff16565b600481905550613a918383613d76565b505050505050565b6000613ac661271061ffff16613ab885886129e790919063ffffffff16565b61220b90919063ffffffff16565b90506000613add85836129e790919063ffffffff16565b9050613aea3083836129fd565b613af48383613d76565b505050505050565b6000613b2961271061ffff16613b1b86896129e790919063ffffffff16565b61220b90919063ffffffff16565b90506000613b4086836129e790919063ffffffff16565b9050613b9481600b60008773ffffffffffffffffffffffffffffffffffffffff1673ffffffffffffffffffffffffffffffffffffffff168152602001908152602001600020546129a690919063ffffffff16565b600b60008673ffffffffffffffffffffffffffffffffffffffff1673ffffffffffffffffffffffffffffffffffffffff16815260200190815260200160002081905550600f60008573ffffffffffffffffffffffffffffffffffffffff1673ffffffffffffffffffffffffffffffffffffffff16815260200190815260200160002060009054906101000a900460ff1615613cbf57613c7b82600c60008773ffffffffffffffffffffffffffffffffffffffff1673ffffffffffffffffffffffffffffffffffffffff168152602001908152602001600020546129a690919063ffffffff16565b600c60008673ffffffffffffffffffffffffffffffffffffffff1673ffffffffffffffffffffffffffffffffffffffff168152602001908152602001600020819055505b613cc98383613d76565b50505050505050565b6000808210158015613ce8575060098054905082105b613d27576040517f08c379a0000000000000000000000000000000000000000000000000000000008152600401613d1e90614b19565b60405180910390fd5b60098281548110613d61577f4e487b7100000000000000000000000000000000000000000000000000000000600052603260045260246000fd5b90600052602060002090600402019050919050565b6000613d8183613cd2565b9050613d9a8282600301546129a690919063ffffffff16565b8160030181905550505050565b600081359050613db681615026565b92915050565b600081359050613dcb8161503d565b92915050565b600081359050613de081615054565b92915050565b600060208284031215613df857600080fd5b6000613e0684828501613da7565b91505092915050565b60008060408385031215613e2257600080fd5b6000613e3085828601613da7565b9250506020613e4185828601613da7565b9150509250929050565b600080600060608486031215613e6057600080fd5b6000613e6e86828701613da7565b9350506020613e7f86828701613da7565b9250506040613e9086828701613dd1565b9150509250925092565b60008060408385031215613ead57600080fd5b6000613ebb85828601613da7565b9250506020613ecc85828601613dbc565b9150509250929050565b60008060408385031215613ee957600080fd5b6000613ef785828601613da7565b9250506020613f0885828601613dd1565b9150509250929050565b600060208284031215613f2457600080fd5b6000613f3284828501613dbc565b91505092915050565b600060208284031215613f4d57600080fd5b6000613f5b84828501613dd1565b91505092915050565b60008060408385031215613f7757600080fd5b6000613f8585828601613dd1565b9250506020613f9685828601613dbc565b9150509250929050565b613fa981614e71565b82525050565b613fb881614e83565b82525050565b613fc781614ed9565b82525050565b6000613fd882614bcf565b613fe28185614bda565b9350613ff2818560208601614eeb565b613ffb81614ff4565b840191505092915050565b6000614013602f83614bda565b91507f5265666c656374696f6e546f6b656e3a207472616e736665722066726f6d207460008301527f6865206275726e206164647265737300000000000000000000000000000000006020830152604082019050919050565b6000614079601c83614bda565b91507f54686520636f6e7472616374206973207374696c6c206c6f636b6564000000006000830152602082019050919050565b60006140b9602883614bda565b91507f4163636f756e7420697320616c7265616479206578636c756465642066726f6d60008301527f20726577617264730000000000000000000000000000000000000000000000006020830152604082019050919050565b600061411f602683614bda565b91507f4163636f756e7420697320616c726561647920696e636c7564656420696e207260008301527f65776172647300000000000000000000000000000000000000000000000000006020830152604082019050919050565b6000614185602c83614bda565b91507f4f6e6c79207468652070726576696f7573206f776e65722063616e20756e6c6f60008301527f636b206f6e7765727368697000000000000000000000000000000000000000006020830152604082019050919050565b60006141eb602a83614bda565b91507f416d6f756e74206d757374206265206c657373207468616e20746f74616c207260008301527f65666c656374696f6e73000000000000000000000000000000000000000000006020830152604082019050919050565b6000614251602683614bda565b91507f4f776e61626c653a206e6577206f776e657220697320746865207a65726f206160008301527f64647265737300000000000000000000000000000000000000000000000000006020830152604082019050919050565b60006142b7602b83614bda565b91507f5265666c656374696f6e546f6b656e3a206275726e2066726f6d20746865207a60008301527f65726f20616464726573730000000000000000000000000000000000000000006020830152604082019050919050565b600061431d605383614bda565b91507f5265666c656374696f6e546f6b656e3a205472616e7366657220616d6f756e7460008301527f206578636565647320746865206d61785478416d6f756e74206173207065722060208301527f616e74692d7768616c652070726f746f636f6c000000000000000000000000006040830152606082019050919050565b60006143a9602c83614bda565b91507f5265666c656374696f6e546f6b656e3a20617070726f766520746f207468652060008301527f7a65726f206164647265737300000000000000000000000000000000000000006020830152604082019050919050565b600061440f601f83614bda565b91507f416d6f756e74206d757374206265206c657373207468616e20737570706c79006000830152602082019050919050565b600061444f602d83614bda565b91507f5265666c656374696f6e546f6b656e3a207472616e7366657220746f2074686560008301527f207a65726f2061646472657373000000000000000000000000000000000000006020830152604082019050919050565b60006144b5602083614bda565b91507f4f776e61626c653a2063616c6c6572206973206e6f7420746865206f776e65726000830152602082019050919050565b60006144f5602e83614bda565b91507f5265666c656374696f6e546f6b656e3a20617070726f76652066726f6d20746860008301527f65207a65726f20616464726573730000000000000000000000000000000000006020830152604082019050919050565b600061455b602b83614bda565b91507f5265666c656374696f6e546f6b656e3a206275726e2066726f6d20746865206260008301527f75726e20616464726573730000000000000000000000000000000000000000006020830152604082019050919050565b60006145c1602583614bda565b91507f4d616e61676561626c653a2063616c6c6572206973206e6f7420746865206d6160008301527f6e616765720000000000000000000000000000000000000000000000000000006020830152604082019050919050565b6000614627602f83614bda565b91507f5265666c656374696f6e546f6b656e3a207472616e736665722066726f6d207460008301527f6865207a65726f206164647265737300000000000000000000000000000000006020830152604082019050919050565b600061468d603383614bda565b91507f4665657353657474696e67732e5f6765744665655374727563743a204665652060008301527f696e646578206f7574206f6620626f756e6473000000000000000000000000006020830152604082019050919050565b60006146f3603a83614bda565b91507f5265666c656374696f6e546f6b656e3a205472616e7366657220616d6f756e7460008301527f206d7573742062652067726561746572207468616e207a65726f0000000000006020830152604082019050919050565b6000614759602c83614bda565b91507f5265666c656374696f6e546f6b656e3a206275726e20616d6f756e742065786360008301527f656564732062616c616e636500000000000000000000000000000000000000006020830152604082019050919050565b60006147bf604583614bda565b91507f5265666c656374696f6e546f6b656e3a20416464726573732063616e2062652060008301527f696e697469616c697a6564206f6e6c7920647572696e6720746865207072652d60208301527f73616c652e0000000000000000000000000000000000000000000000000000006040830152606082019050919050565b61484781614ec2565b82525050565b61485681614ecc565b82525050565b60006020820190506148716000830184613fa0565b92915050565b600060208201905061488c6000830184613faf565b92915050565b60006080820190506148a76000830187613fbe565b6148b4602083018661483e565b6148c16040830185613fa0565b6148ce606083018461483e565b95945050505050565b600060208201905081810360008301526148f18184613fcd565b905092915050565b6000602082019050818103600083015261491281614006565b9050919050565b600060208201905081810360008301526149328161406c565b9050919050565b60006020820190508181036000830152614952816140ac565b9050919050565b6000602082019050818103600083015261497281614112565b9050919050565b6000602082019050818103600083015261499281614178565b9050919050565b600060208201905081810360008301526149b2816141de565b9050919050565b600060208201905081810360008301526149d281614244565b9050919050565b600060208201905081810360008301526149f2816142aa565b9050919050565b60006020820190508181036000830152614a1281614310565b9050919050565b60006020820190508181036000830152614a328161439c565b9050919050565b60006020820190508181036000830152614a5281614402565b9050919050565b60006020820190508181036000830152614a7281614442565b9050919050565b60006020820190508181036000830152614a92816144a8565b9050919050565b60006020820190508181036000830152614ab2816144e8565b9050919050565b60006020820190508181036000830152614ad28161454e565b9050919050565b60006020820190508181036000830152614af2816145b4565b9050919050565b60006020820190508181036000830152614b128161461a565b9050919050565b60006020820190508181036000830152614b3281614680565b9050919050565b60006020820190508181036000830152614b52816146e6565b9050919050565b60006020820190508181036000830152614b728161474c565b9050919050565b60006020820190508181036000830152614b92816147b2565b9050919050565b6000602082019050614bae600083018461483e565b92915050565b6000602082019050614bc9600083018461484d565b92915050565b600081519050919050565b600082825260208201905092915050565b6000614bf682614ec2565b9150614c0183614ec2565b9250827fffffffffffffffffffffffffffffffffffffffffffffffffffffffffffffffff03821115614c3657614c35614f67565b5b828201905092915050565b6000614c4c82614ec2565b9150614c5783614ec2565b925082614c6757614c66614f96565b5b828204905092915050565b6000808291508390505b6001851115614cbc57808604811115614c9857614c97614f67565b5b6001851615614ca75780820291505b8081029050614cb585615005565b9450614c7c565b94509492505050565b6000614cd082614ec2565b9150614cdb83614ecc565b9250614d087fffffffffffffffffffffffffffffffffffffffffffffffffffffffffffffffff8484614d10565b905092915050565b600082614d205760019050614ddc565b81614d2e5760009050614ddc565b8160018114614d445760028114614d4e57614d7d565b6001915050614ddc565b60ff841115614d6057614d5f614f67565b5b8360020a915084821115614d7757614d76614f67565b5b50614ddc565b5060208310610133831016604e8410600b8410161715614db25782820a905083811115614dad57614dac614f67565b5b614ddc565b614dbf8484846001614c72565b92509050818404811115614dd657614dd5614f67565b5b81810290505b9392505050565b6000614dee82614ec2565b9150614df983614ec2565b9250817fffffffffffffffffffffffffffffffffffffffffffffffffffffffffffffffff0483118215151615614e3257614e31614f67565b5b828202905092915050565b6000614e4882614ec2565b9150614e5383614ec2565b925082821015614e6657614e65614f67565b5b828203905092915050565b6000614e7c82614ea2565b9050919050565b60008115159050919050565b6000819050614e9d82615012565b919050565b600073ffffffffffffffffffffffffffffffffffffffff82169050919050565b6000819050919050565b600060ff82169050919050565b6000614ee482614e8f565b9050919050565b60005b83811015614f09578082015181840152602081019050614eee565b83811115614f18576000848401525b50505050565b6000614f2982614ec2565b91507fffffffffffffffffffffffffffffffffffffffffffffffffffffffffffffffff821415614f5c57614f5b614f67565b5b600182019050919050565b7f4e487b7100000000000000000000000000000000000000000000000000000000600052601160045260246000fd5b7f4e487b7100000000000000000000000000000000000000000000000000000000600052601260045260246000fd5b7f4e487b7100000000000000000000000000000000000000000000000000000000600052602160045260246000fd5b6000601f19601f8301169050919050565b60008160011c9050919050565b6005811061502357615022614fc5565b5b50565b61502f81614e71565b811461503a57600080fd5b50565b61504681614e83565b811461505157600080fd5b50565b61505d81614ec2565b811461506857600080fd5b5056fe45524332303a207472616e7366657220616d6f756e74206578636565647320616c6c6f77616e636545524332303a2064656372656173656420616c6c6f77616e63652062656c6f77207a65726fa26469706673582212206138b0e0e6ce364bd9cc46eef9b4622a90cb6b976d29c530caa7df68d380eeee64736f6c63430008000033",
  "devdoc": {
    "kind": "dev",
    "methods": {
      "approve(address,uint256)": {
        "details": "Sets `amount` as the allowance of `spender` over the caller's tokens. Returns a boolean value indicating whether the operation succeeded. IMPORTANT: Beware that changing an allowance with this method brings the risk that someone may use both the old and the new allowance by unfortunate transaction ordering. One possible solution to mitigate this race condition is to first reduce the spender's allowance to 0 and set the desired value afterwards: https://github.com/ethereum/EIPs/issues/20#issuecomment-263524729 Emits an {Approval} event."
      },
      "balanceOf(address)": {
        "details": "Returns the amount of tokens owned by `account`."
      },
      "burn(uint256)": {
        "details": "this is really a \"soft\" burn (total supply is not reduced). RFI holders get two benefits from burning tokens: 1) Tokens in the burn address increase the % of tokens held by holders not    excluded from rewards 2) Tokens in the burn address cannot be sold (which in turn causes deflation) In RFI holders already get % of each transaction so the value of their tokens  increases (in a way). Therefore there is really no need to do a \"hard\" burn  (reduce the total supply). What matters (in RFI) is to make sure that a large amount of tokens cannot be sold = increasing the intrinsic value of tokens. For this purpose, transfering tokens to a (vanity) burn address is the most appropriate way to \"burn\".  There is an extra check placed into the `transfer` function to make sure the burn address cannot withdraw the tokens is has (although the chance of someone having/finding the private key is virtually zero)."
      },
      "decimals()": {
        "details": "Returns the token decimals."
      },
      "getOwner()": {
        "details": "Returns the bep token owner."
      },
      "reflectionFromToken(uint256,bool)": {
        "details": "Calculates and returns the reflected amount for the given amount with or without  the transfer fees (deductTransferFee true/false)"
      },
      "symbol()": {
        "details": "Returns the token symbol."
      },
      "totalSupply()": {
        "details": "Returns the amount of tokens in existence."
      },
      "transfer(address,uint256)": {
        "details": "Moves `amount` tokens from the caller's account to `recipient`. Returns a boolean value indicating whether the operation succeeded. Emits a {Transfer} event."
      },
      "transferFrom(address,address,uint256)": {
        "details": "Moves `amount` tokens from `sender` to `recipient` using the allowance mechanism. `amount` is then deducted from the caller's allowance. Returns a boolean value indicating whether the operation succeeded. Emits a {Transfer} event."
      }
    },
    "version": 1
  },
  "userdoc": {
    "kind": "user",
    "methods": {
      "name()": {
        "notice": "Functions required by IBEP20 *"
      }
    },
    "version": 1
  },
  "storageLayout": {
    "storage": [
      {
        "astId": 503,
        "contract": "contracts/CinemaDraftToken.sol:CinemaDraftToken",
        "label": "_owner",
        "offset": 0,
        "slot": "0",
        "type": "t_address"
      },
      {
        "astId": 505,
        "contract": "contracts/CinemaDraftToken.sol:CinemaDraftToken",
        "label": "_previousOwner",
        "offset": 0,
        "slot": "1",
        "type": "t_address"
      },
      {
        "astId": 507,
        "contract": "contracts/CinemaDraftToken.sol:CinemaDraftToken",
        "label": "_lockTime",
        "offset": 0,
        "slot": "2",
        "type": "t_uint256"
      },
      {
        "astId": 678,
        "contract": "contracts/CinemaDraftToken.sol:CinemaDraftToken",
        "label": "_manager",
        "offset": 0,
        "slot": "3",
        "type": "t_address"
      },
      {
        "astId": 1037,
        "contract": "contracts/CinemaDraftToken.sol:CinemaDraftToken",
        "label": "isInPresale",
        "offset": 20,
        "slot": "3",
        "type": "t_bool"
      },
      {
        "astId": 791,
        "contract": "contracts/CinemaDraftToken.sol:CinemaDraftToken",
        "label": "_reflectedSupply",
        "offset": 0,
        "slot": "4",
        "type": "t_uint256"
      },
      {
        "astId": 807,
        "contract": "contracts/CinemaDraftToken.sol:CinemaDraftToken",
        "label": "burnAddress",
        "offset": 0,
        "slot": "5",
        "type": "t_address"
      },
      {
        "astId": 810,
        "contract": "contracts/CinemaDraftToken.sol:CinemaDraftToken",
        "label": "cinemaDraftWalletAddress",
        "offset": 0,
        "slot": "6",
        "type": "t_address"
      },
      {
        "astId": 813,
        "contract": "contracts/CinemaDraftToken.sol:CinemaDraftToken",
        "label": "communityJackpotAddress",
        "offset": 0,
        "slot": "7",
        "type": "t_address"
      },
      {
        "astId": 816,
        "contract": "contracts/CinemaDraftToken.sol:CinemaDraftToken",
        "label": "stakingRewardsWalletAddress",
        "offset": 0,
        "slot": "8",
        "type": "t_address"
      },
      {
        "astId": 836,
        "contract": "contracts/CinemaDraftToken.sol:CinemaDraftToken",
        "label": "fees",
        "offset": 0,
        "slot": "9",
        "type": "t_array(t_struct(Fee)832_storage)dyn_storage"
      },
      {
        "astId": 838,
        "contract": "contracts/CinemaDraftToken.sol:CinemaDraftToken",
        "label": "sumOfFees",
        "offset": 0,
        "slot": "10",
        "type": "t_uint256"
      },
      {
        "astId": 1069,
        "contract": "contracts/CinemaDraftToken.sol:CinemaDraftToken",
        "label": "_reflectedBalances",
        "offset": 0,
        "slot": "11",
        "type": "t_mapping(t_address,t_uint256)"
      },
      {
        "astId": 1073,
        "contract": "contracts/CinemaDraftToken.sol:CinemaDraftToken",
        "label": "_balances",
        "offset": 0,
        "slot": "12",
        "type": "t_mapping(t_address,t_uint256)"
      },
      {
        "astId": 1079,
        "contract": "contracts/CinemaDraftToken.sol:CinemaDraftToken",
        "label": "_allowances",
        "offset": 0,
        "slot": "13",
        "type": "t_mapping(t_address,t_mapping(t_address,t_uint256))"
      },
      {
        "astId": 1083,
        "contract": "contracts/CinemaDraftToken.sol:CinemaDraftToken",
        "label": "_isExcludedFromFee",
        "offset": 0,
        "slot": "14",
        "type": "t_mapping(t_address,t_bool)"
      },
      {
        "astId": 1087,
        "contract": "contracts/CinemaDraftToken.sol:CinemaDraftToken",
        "label": "_isExcludedFromRewards",
        "offset": 0,
        "slot": "15",
        "type": "t_mapping(t_address,t_bool)"
      },
      {
        "astId": 1090,
        "contract": "contracts/CinemaDraftToken.sol:CinemaDraftToken",
        "label": "_excluded",
        "offset": 0,
        "slot": "16",
        "type": "t_array(t_address)dyn_storage"
      },
      {
        "astId": 1094,
        "contract": "contracts/CinemaDraftToken.sol:CinemaDraftToken",
        "label": "_isIncludedInAntiDumping",
        "offset": 0,
        "slot": "17",
        "type": "t_mapping(t_address,t_bool)"
      },
      {
        "astId": 1098,
        "contract": "contracts/CinemaDraftToken.sol:CinemaDraftToken",
        "label": "_isUnlimitedSenderOrRecipient",
        "offset": 0,
        "slot": "18",
        "type": "t_mapping(t_address,t_bool)"
      }
    ],
    "types": {
      "t_address": {
        "encoding": "inplace",
        "label": "address",
        "numberOfBytes": "20"
      },
      "t_array(t_address)dyn_storage": {
        "base": "t_address",
        "encoding": "dynamic_array",
        "label": "address[]",
        "numberOfBytes": "32"
      },
      "t_array(t_struct(Fee)832_storage)dyn_storage": {
        "base": "t_struct(Fee)832_storage",
        "encoding": "dynamic_array",
        "label": "struct Tokenomics.Fee[]",
        "numberOfBytes": "32"
      },
      "t_bool": {
        "encoding": "inplace",
        "label": "bool",
        "numberOfBytes": "1"
      },
      "t_enum(FeeType)822": {
        "encoding": "inplace",
        "label": "enum Tokenomics.FeeType",
        "numberOfBytes": "1"
      },
      "t_mapping(t_address,t_bool)": {
        "encoding": "mapping",
        "key": "t_address",
        "label": "mapping(address => bool)",
        "numberOfBytes": "32",
        "value": "t_bool"
      },
      "t_mapping(t_address,t_mapping(t_address,t_uint256))": {
        "encoding": "mapping",
        "key": "t_address",
        "label": "mapping(address => mapping(address => uint256))",
        "numberOfBytes": "32",
        "value": "t_mapping(t_address,t_uint256)"
      },
      "t_mapping(t_address,t_uint256)": {
        "encoding": "mapping",
        "key": "t_address",
        "label": "mapping(address => uint256)",
        "numberOfBytes": "32",
        "value": "t_uint256"
      },
      "t_struct(Fee)832_storage": {
        "encoding": "inplace",
        "label": "struct Tokenomics.Fee",
        "members": [
          {
            "astId": 825,
            "contract": "contracts/CinemaDraftToken.sol:CinemaDraftToken",
            "label": "name",
            "offset": 0,
            "slot": "0",
            "type": "t_enum(FeeType)822"
          },
          {
            "astId": 827,
            "contract": "contracts/CinemaDraftToken.sol:CinemaDraftToken",
            "label": "value",
            "offset": 0,
            "slot": "1",
            "type": "t_uint256"
          },
          {
            "astId": 829,
            "contract": "contracts/CinemaDraftToken.sol:CinemaDraftToken",
            "label": "recipient",
            "offset": 0,
            "slot": "2",
            "type": "t_address"
          },
          {
            "astId": 831,
            "contract": "contracts/CinemaDraftToken.sol:CinemaDraftToken",
            "label": "total",
            "offset": 0,
            "slot": "3",
            "type": "t_uint256"
          }
        ],
        "numberOfBytes": "128"
      },
      "t_uint256": {
        "encoding": "inplace",
        "label": "uint256",
        "numberOfBytes": "32"
      }
    }
  }
}